{
  "address": "0xc5c3a83e9139cc50402caE04f335EA6B04c232b9",
  "abi": [
    {
      "anonymous": false,
      "inputs": [
        {
          "indexed": false,
          "internalType": "address",
          "name": "userAddress",
          "type": "address"
        },
        {
          "indexed": false,
          "internalType": "address payable",
          "name": "relayerAddress",
          "type": "address"
        },
        {
          "indexed": false,
          "internalType": "bytes",
          "name": "functionSignature",
          "type": "bytes"
        }
      ],
      "name": "MetaTransactionExecuted",
      "type": "event"
    },
    {
      "inputs": [
        {
          "internalType": "address",
          "name": "userAddress",
          "type": "address"
        },
        {
          "internalType": "bytes",
          "name": "functionSignature",
          "type": "bytes"
        },
        {
          "internalType": "bytes32",
          "name": "sigR",
          "type": "bytes32"
        },
        {
          "internalType": "bytes32",
          "name": "sigS",
          "type": "bytes32"
        },
        {
          "internalType": "uint8",
          "name": "sigV",
          "type": "uint8"
        }
      ],
      "name": "executeMetaTransaction",
      "outputs": [
        {
          "internalType": "bytes",
          "name": "",
          "type": "bytes"
        }
      ],
      "stateMutability": "payable",
      "type": "function"
    },
    {
      "inputs": [],
      "name": "getChainID",
      "outputs": [
        {
          "internalType": "uint256",
          "name": "",
          "type": "uint256"
        }
      ],
      "stateMutability": "view",
      "type": "function"
    },
    {
      "inputs": [
        {
          "internalType": "address",
          "name": "user",
          "type": "address"
        }
      ],
      "name": "getNonce",
      "outputs": [
        {
          "internalType": "uint256",
          "name": "nonce",
          "type": "uint256"
        }
      ],
      "stateMutability": "view",
      "type": "function"
    },
    {
      "inputs": [
        {
          "internalType": "address",
          "name": "owner",
          "type": "address"
        },
        {
          "internalType": "uint256",
          "name": "nonce",
          "type": "uint256"
        },
        {
          "internalType": "uint256",
          "name": "chainID",
          "type": "uint256"
        },
        {
          "internalType": "bytes",
          "name": "functionSignature",
          "type": "bytes"
        },
        {
          "internalType": "bytes32",
          "name": "sigR",
          "type": "bytes32"
        },
        {
          "internalType": "bytes32",
          "name": "sigS",
          "type": "bytes32"
        },
        {
          "internalType": "uint8",
          "name": "sigV",
          "type": "uint8"
        }
      ],
      "name": "verify",
      "outputs": [
        {
          "internalType": "bool",
          "name": "",
          "type": "bool"
        }
      ],
      "stateMutability": "view",
      "type": "function"
    }
  ],
  "transactionHash": "0x78fb5a3a399a3fe5a98f8bfda77c6f55829dc9d25f05e9158e25c1f6113ea777",
  "args": [],
  "numDeployments": 1,
  "solcInputHash": "777d0f7041d37ef42acce7ae102d0794",
  "bytecode": "0x608060405234801561001057600080fd5b50610ef8806100206000396000f3fe60806040526004361061003f5760003560e01c80630c53c51c146100445780632d0335ab14610074578063564b81ef146100b15780636281133d146100dc575b600080fd5b61005e60048036038101906100599190610616565b610119565b60405161006b9190610a54565b60405180910390f35b34801561008057600080fd5b5061009b600480360381019061009691906105ed565b61035b565b6040516100a89190610ad6565b60405180910390f35b3480156100bd57600080fd5b506100c66103a3565b6040516100d39190610ad6565b60405180910390f35b3480156100e857600080fd5b5061010360048036038101906100fe91906106a5565b6103b0565b60405161011091906109f4565b60405180910390f35b606061016f866000808973ffffffffffffffffffffffffffffffffffffffff1673ffffffffffffffffffffffffffffffffffffffff168152602001908152602001600020546101666103a3565b888888886103b0565b6101ae576040517f08c379a00000000000000000000000000000000000000000000000000000000081526004016101a590610ab6565b60405180910390fd5b61020060016000808973ffffffffffffffffffffffffffffffffffffffff1673ffffffffffffffffffffffffffffffffffffffff168152602001908152602001600020546104eb90919063ffffffff16565b6000808873ffffffffffffffffffffffffffffffffffffffff1673ffffffffffffffffffffffffffffffffffffffff168152602001908152602001600020819055506000803073ffffffffffffffffffffffffffffffffffffffff16878960405160200161026f92919061091e565b60405160208183030381529060405260405161028b9190610907565b6000604051808303816000865af19150503d80600081146102c8576040519150601f19603f3d011682016040523d82523d6000602084013e6102cd565b606091505b509150915081610312576040517f08c379a000000000000000000000000000000000000000000000000000000000815260040161030990610a76565b60405180910390fd5b7f5845892132946850460bff5a0083f71031bc5bf9aadcd40f1de79423eac9b10b883389604051610345939291906109b6565b60405180910390a1809250505095945050505050565b60008060008373ffffffffffffffffffffffffffffffffffffffff1673ffffffffffffffffffffffffffffffffffffffff168152602001908152602001600020549050919050565b6000804690508091505090565b6000806103e8883089896040516020016103cd949392919061096c565b60405160208183030381529060405280519060200120610501565b905060006001828588886040516000815260200160405260405161040f9493929190610a0f565b6020604051602081039080840390855afa158015610431573d6000803e3d6000fd5b505050602060405103519050600073ffffffffffffffffffffffffffffffffffffffff168173ffffffffffffffffffffffffffffffffffffffff1614156104ad576040517f08c379a00000000000000000000000000000000000000000000000000000000081526004016104a490610a96565b60405180910390fd5b8073ffffffffffffffffffffffffffffffffffffffff168a73ffffffffffffffffffffffffffffffffffffffff161492505050979650505050505050565b600081836104f99190610b8a565b905092915050565b6000816040516020016105149190610946565b604051602081830303815290604052805190602001209050919050565b600061054461053f84610b16565b610af1565b90508281526020810184848401111561055c57600080fd5b610567848285610c75565b509392505050565b60008135905061057e81610e66565b92915050565b60008135905061059381610e7d565b92915050565b600082601f8301126105aa57600080fd5b81356105ba848260208601610531565b91505092915050565b6000813590506105d281610e94565b92915050565b6000813590506105e781610eab565b92915050565b6000602082840312156105ff57600080fd5b600061060d8482850161056f565b91505092915050565b600080600080600060a0868803121561062e57600080fd5b600061063c8882890161056f565b955050602086013567ffffffffffffffff81111561065957600080fd5b61066588828901610599565b945050604061067688828901610584565b935050606061068788828901610584565b9250506080610698888289016105d8565b9150509295509295909350565b600080600080600080600060e0888a0312156106c057600080fd5b60006106ce8a828b0161056f565b97505060206106df8a828b016105c3565b96505060406106f08a828b016105c3565b955050606088013567ffffffffffffffff81111561070d57600080fd5b6107198a828b01610599565b945050608061072a8a828b01610584565b93505060a061073b8a828b01610584565b92505060c061074c8a828b016105d8565b91505092959891949750929550565b61076481610bf2565b82525050565b61077381610be0565b82525050565b61078a61078582610be0565b610ce8565b82525050565b61079981610c04565b82525050565b6107a881610c10565b82525050565b6107bf6107ba82610c10565b610cfa565b82525050565b60006107d082610b47565b6107da8185610b52565b93506107ea818560208601610c84565b6107f381610d7e565b840191505092915050565b600061080982610b47565b6108138185610b63565b9350610823818560208601610c84565b80840191505092915050565b61084061083b82610c51565b610ce8565b82525050565b6000610853601c83610b7f565b915061085e82610d9c565b601c82019050919050565b6000610876601c83610b6e565b915061088182610dc5565b602082019050919050565b6000610899601183610b6e565b91506108a482610dee565b602082019050919050565b60006108bc602183610b6e565b91506108c782610e17565b604082019050919050565b6108db81610c3a565b82525050565b6108f26108ed82610c3a565b610d16565b82525050565b61090181610c44565b82525050565b600061091382846107fe565b915081905092915050565b600061092a82856107fe565b91506109368284610779565b6014820191508190509392505050565b600061095182610846565b915061095d82846107ae565b60208201915081905092915050565b600061097882876108e1565b602082019150610988828661082f565b60148201915061099882856108e1565b6020820191506109a882846107fe565b915081905095945050505050565b60006060820190506109cb600083018661076a565b6109d8602083018561075b565b81810360408301526109ea81846107c5565b9050949350505050565b6000602082019050610a096000830184610790565b92915050565b6000608082019050610a24600083018761079f565b610a3160208301866108f8565b610a3e604083018561079f565b610a4b606083018461079f565b95945050505050565b60006020820190508181036000830152610a6e81846107c5565b905092915050565b60006020820190508181036000830152610a8f81610869565b9050919050565b60006020820190508181036000830152610aaf8161088c565b9050919050565b60006020820190508181036000830152610acf816108af565b9050919050565b6000602082019050610aeb60008301846108d2565b92915050565b6000610afb610b0c565b9050610b078282610cb7565b919050565b6000604051905090565b600067ffffffffffffffff821115610b3157610b30610d4f565b5b610b3a82610d7e565b9050602081019050919050565b600081519050919050565b600082825260208201905092915050565b600081905092915050565b600082825260208201905092915050565b600081905092915050565b6000610b9582610c3a565b9150610ba083610c3a565b9250827fffffffffffffffffffffffffffffffffffffffffffffffffffffffffffffffff03821115610bd557610bd4610d20565b5b828201905092915050565b6000610beb82610c1a565b9050919050565b6000610bfd82610c1a565b9050919050565b60008115159050919050565b6000819050919050565b600073ffffffffffffffffffffffffffffffffffffffff82169050919050565b6000819050919050565b600060ff82169050919050565b6000610c5c82610c63565b9050919050565b6000610c6e82610c1a565b9050919050565b82818337600083830152505050565b60005b83811015610ca2578082015181840152602081019050610c87565b83811115610cb1576000848401525b50505050565b610cc082610d7e565b810181811067ffffffffffffffff82111715610cdf57610cde610d4f565b5b80604052505050565b6000610cf382610d04565b9050919050565b6000819050919050565b6000610d0f82610d8f565b9050919050565b6000819050919050565b7f4e487b7100000000000000000000000000000000000000000000000000000000600052601160045260246000fd5b7f4e487b7100000000000000000000000000000000000000000000000000000000600052604160045260246000fd5b6000601f19601f8301169050919050565b60008160601b9050919050565b7f19457468657265756d205369676e6564204d6573736167653a0a333200000000600082015250565b7f46756e6374696f6e2063616c6c206e6f74207375636365737366756c00000000600082015250565b7f496e76616c6964207369676e6174757265000000000000000000000000000000600082015250565b7f5369676e657220616e64207369676e617475726520646f206e6f74206d61746360008201527f6800000000000000000000000000000000000000000000000000000000000000602082015250565b610e6f81610be0565b8114610e7a57600080fd5b50565b610e8681610c10565b8114610e9157600080fd5b50565b610e9d81610c3a565b8114610ea857600080fd5b50565b610eb481610c44565b8114610ebf57600080fd5b5056fea26469706673582212205ab21b38435f70fb839880f00c0588b46e085f6cf575688c41475fef6116f00d64736f6c63430008020033",
  "devdoc": {
    "kind": "dev",
    "methods": {
      "executeMetaTransaction(address,bytes,bytes32,bytes32,uint8)": {
        "params": {
          "functionSignature": "Signature of the actual function to be called via meta transaction",
          "sigR": "R part of the signature",
          "sigS": "S part of the signature",
          "sigV": "V part of the signature",
          "userAddress": "Address of user trying to do meta transaction"
        }
      }
    },
    "version": 1
  },
  "userdoc": {
    "kind": "user",
    "methods": {
      "executeMetaTransaction(address,bytes,bytes32,bytes32,uint8)": {
        "notice": "Main function to be called when user wants to execute meta transaction. The actual function to be called should be passed as param with name functionSignature Here the basic signature recovery is being used. Signature is expected to be generated using personal_sign method."
      }
    },
    "version": 1
  },
  "storageLayout": {
    "storage": [
      {
        "astId": 329,
        "contract": "contracts/BasicMetaTransaction.sol:BasicMetaTransaction",
        "label": "nonces",
        "offset": 0,
        "slot": "0",
        "type": "t_mapping(t_address,t_uint256)"
      }
    ],
    "types": {
      "t_address": {
        "encoding": "inplace",
        "label": "address",
        "numberOfBytes": "20"
      },
      "t_mapping(t_address,t_uint256)": {
        "encoding": "mapping",
        "key": "t_address",
        "label": "mapping(address => uint256)",
        "numberOfBytes": "32",
        "value": "t_uint256"
      },
      "t_uint256": {
        "encoding": "inplace",
        "label": "uint256",
        "numberOfBytes": "32"
      }
    }
  }
}