{
  "address": "0x5B74665EC17f26dC619e17Df2a899Be79B21AcDD",
  "abi": [
    {
      "anonymous": false,
      "inputs": [
        {
          "indexed": false,
          "internalType": "uint8",
          "name": "version",
          "type": "uint8"
        }
      ],
      "name": "Initialized",
      "type": "event"
    },
    {
      "anonymous": false,
      "inputs": [
        {
          "indexed": false,
          "internalType": "address",
          "name": "userAddress",
          "type": "address"
        },
        {
          "indexed": false,
          "internalType": "address payable",
          "name": "relayerAddress",
          "type": "address"
        },
        {
          "indexed": false,
          "internalType": "bytes",
          "name": "functionSignature",
          "type": "bytes"
        }
      ],
      "name": "MetaTransactionExecuted",
      "type": "event"
    },
    {
      "anonymous": false,
      "inputs": [
        {
          "indexed": false,
          "internalType": "address",
          "name": "previousOwner",
          "type": "address"
        },
        {
          "indexed": false,
          "internalType": "address",
          "name": "newOwner",
          "type": "address"
        }
      ],
      "name": "OwnershipTransferred",
      "type": "event"
    },
    {
      "inputs": [
        {
          "internalType": "address",
          "name": "userAddress",
          "type": "address"
        },
        {
          "internalType": "bytes",
          "name": "functionSignature",
          "type": "bytes"
        },
        {
          "internalType": "bytes32",
          "name": "sigR",
          "type": "bytes32"
        },
        {
          "internalType": "bytes32",
          "name": "sigS",
          "type": "bytes32"
        },
        {
          "internalType": "uint8",
          "name": "sigV",
          "type": "uint8"
        }
      ],
      "name": "executeMetaTransaction",
      "outputs": [
        {
          "internalType": "bytes",
          "name": "",
          "type": "bytes"
        }
      ],
      "stateMutability": "payable",
      "type": "function"
    },
    {
      "inputs": [],
      "name": "getChainID",
      "outputs": [
        {
          "internalType": "uint256",
          "name": "",
          "type": "uint256"
        }
      ],
      "stateMutability": "view",
      "type": "function"
    },
    {
      "inputs": [
        {
          "internalType": "address",
          "name": "user",
          "type": "address"
        }
      ],
      "name": "getNonce",
      "outputs": [
        {
          "internalType": "uint256",
          "name": "nonce",
          "type": "uint256"
        }
      ],
      "stateMutability": "view",
      "type": "function"
    },
    {
      "inputs": [
        {
          "internalType": "uint16[]",
          "name": "arr",
          "type": "uint16[]"
        },
        {
          "internalType": "bool",
          "name": "flag",
          "type": "bool"
        }
      ],
      "name": "getRepPoints",
      "outputs": [
        {
          "internalType": "uint256",
          "name": "",
          "type": "uint256"
        }
      ],
      "stateMutability": "pure",
      "type": "function"
    },
    {
      "inputs": [
        {
          "components": [
            {
              "internalType": "string",
              "name": "Title",
              "type": "string"
            },
            {
              "internalType": "string",
              "name": "SbtCategory",
              "type": "string"
            },
            {
              "internalType": "string",
              "name": "DateOfIssue",
              "type": "string"
            },
            {
              "internalType": "string",
              "name": "DeSocMembershipStatus",
              "type": "string"
            },
            {
              "internalType": "uint256",
              "name": "REPTokens",
              "type": "uint256"
            },
            {
              "internalType": "string",
              "name": "RepTokenStatus",
              "type": "string"
            },
            {
              "internalType": "string",
              "name": "Issuer",
              "type": "string"
            },
            {
              "internalType": "uint16",
              "name": "RunsScored",
              "type": "uint16"
            },
            {
              "internalType": "uint16",
              "name": "WicketsTaken",
              "type": "uint16"
            },
            {
              "internalType": "uint16",
              "name": "NoOfCatches",
              "type": "uint16"
            },
            {
              "internalType": "uint16",
              "name": "NoOfRunOuts",
              "type": "uint16"
            },
            {
              "internalType": "uint16",
              "name": "NoOfStumpings",
              "type": "uint16"
            }
          ],
          "internalType": "struct WAGMI_CUP_SBT.sbt",
          "name": "_sbt",
          "type": "tuple"
        },
        {
          "internalType": "string",
          "name": "_tokenURI",
          "type": "string"
        },
        {
          "internalType": "address",
          "name": "to",
          "type": "address"
        }
      ],
      "name": "getWagmiCupPOAP",
      "outputs": [],
      "stateMutability": "nonpayable",
      "type": "function"
    },
    {
      "inputs": [
        {
          "internalType": "address",
          "name": "_wagmiCup_SBT",
          "type": "address"
        },
        {
          "internalType": "address",
          "name": "_repContract",
          "type": "address"
        }
      ],
      "name": "initialize",
      "outputs": [],
      "stateMutability": "nonpayable",
      "type": "function"
    },
    {
      "inputs": [
        {
          "internalType": "address",
          "name": "",
          "type": "address"
        }
      ],
      "name": "isPoaped",
      "outputs": [
        {
          "internalType": "bool",
          "name": "",
          "type": "bool"
        }
      ],
      "stateMutability": "view",
      "type": "function"
    },
    {
      "inputs": [],
      "name": "owner",
      "outputs": [
        {
          "internalType": "address",
          "name": "",
          "type": "address"
        }
      ],
      "stateMutability": "view",
      "type": "function"
    },
    {
      "inputs": [],
      "name": "repContract",
      "outputs": [
        {
          "internalType": "address",
          "name": "",
          "type": "address"
        }
      ],
      "stateMutability": "view",
      "type": "function"
    },
    {
      "inputs": [
        {
          "internalType": "address",
          "name": "_rep",
          "type": "address"
        }
      ],
      "name": "setRepContract",
      "outputs": [],
      "stateMutability": "nonpayable",
      "type": "function"
    },
    {
      "inputs": [
        {
          "internalType": "address",
          "name": "_wagmiCup",
          "type": "address"
        }
      ],
      "name": "setWagmiCupContract",
      "outputs": [],
      "stateMutability": "nonpayable",
      "type": "function"
    },
    {
      "inputs": [
        {
          "internalType": "address",
          "name": "newOwner",
          "type": "address"
        }
      ],
      "name": "transferOwnership",
      "outputs": [],
      "stateMutability": "nonpayable",
      "type": "function"
    },
    {
      "inputs": [
        {
          "internalType": "address",
          "name": "owner",
          "type": "address"
        },
        {
          "internalType": "uint256",
          "name": "nonce",
          "type": "uint256"
        },
        {
          "internalType": "uint256",
          "name": "chainID",
          "type": "uint256"
        },
        {
          "internalType": "bytes",
          "name": "functionSignature",
          "type": "bytes"
        },
        {
          "internalType": "bytes32",
          "name": "sigR",
          "type": "bytes32"
        },
        {
          "internalType": "bytes32",
          "name": "sigS",
          "type": "bytes32"
        },
        {
          "internalType": "uint8",
          "name": "sigV",
          "type": "uint8"
        }
      ],
      "name": "verify",
      "outputs": [
        {
          "internalType": "bool",
          "name": "",
          "type": "bool"
        }
      ],
      "stateMutability": "view",
      "type": "function"
    },
    {
      "inputs": [],
      "name": "wagmiCup_SBT",
      "outputs": [
        {
          "internalType": "address",
          "name": "",
          "type": "address"
        }
      ],
      "stateMutability": "view",
      "type": "function"
    }
  ],
  "transactionHash": "0x90a7e484cac739201b05829fb2f581c3a3ec27aa64c17924a9453d3b2272f140",
  "args": [],
  "numDeployments": 3,
  "solcInputHash": "6bbe89554f455ada558d70d03eda617b",
  "bytecode": "0x60806040523480156200001157600080fd5b5062000032620000266200003860201b60201c565b620000f160201b60201c565b62000135565b60003073ffffffffffffffffffffffffffffffffffffffff163373ffffffffffffffffffffffffffffffffffffffff161415620000e457600080368080601f016020809104026020016040519081016040528093929190818152602001838380828437600081840152601f19601f820116905080830192505050505050509050600080369050905073ffffffffffffffffffffffffffffffffffffffff818301511692505050620000ed565b339050620000ee565b5b90565b80600160026101000a81548173ffffffffffffffffffffffffffffffffffffffff021916908373ffffffffffffffffffffffffffffffffffffffff16021790555050565b6126a580620001456000396000f3fe6080604052600436106100dd5760003560e01c80636281133d1161007f578063cc08648811610059578063cc086488146102d7578063d3f2fedf14610300578063dbf1bd3c1461032b578063f2fde38b14610356576100dd565b80636281133d146102465780638da5cb5b14610283578063cbaa62d7146102ae576100dd565b80630f9da967116100bb5780630f9da9671461018c5780632d0335ab146101b5578063485cc955146101f2578063564b81ef1461021b576100dd565b806307da87a1146100e25780630c491b5c1461011f5780630c53c51c1461015c575b600080fd5b3480156100ee57600080fd5b50610109600480360381019061010491906116c5565b61037f565b6040516101169190611eca565b60405180910390f35b34801561012b57600080fd5b506101466004803603810190610141919061186f565b61039f565b6040516101539190612027565b60405180910390f35b6101766004803603810190610171919061172a565b6106d7565b6040516101839190611f2a565b60405180910390f35b34801561019857600080fd5b506101b360048036038101906101ae91906118c3565b610919565b005b3480156101c157600080fd5b506101dc60048036038101906101d791906116c5565b610b48565b6040516101e99190612027565b60405180910390f35b3480156101fe57600080fd5b50610219600480360381019061021491906116ee565b610b90565b005b34801561022757600080fd5b50610230610d5a565b60405161023d9190612027565b60405180910390f35b34801561025257600080fd5b5061026d600480360381019061026891906117b9565b610d67565b60405161027a9190611eca565b60405180910390f35b34801561028f57600080fd5b50610298610ea2565b6040516102a59190611dcc565b60405180910390f35b3480156102ba57600080fd5b506102d560048036038101906102d091906116c5565b610ecc565b005b3480156102e357600080fd5b506102fe60048036038101906102f991906116c5565b610f8c565b005b34801561030c57600080fd5b5061031561104c565b6040516103229190611dcc565b60405180910390f35b34801561033757600080fd5b50610340611072565b60405161034d9190611dcc565b60405180910390f35b34801561036257600080fd5b5061037d600480360381019061037891906116c5565b611098565b005b60026020528060005260406000206000915054906101000a900460ff1681565b6000806064846008815181106103de577f4e487b7100000000000000000000000000000000000000000000000000000000600052603260045260246000fd5b60200260200101516103f091906121e2565b60648560078151811061042c577f4e487b7100000000000000000000000000000000000000000000000000000000600052603260045260246000fd5b602002602001015161043e91906121e2565b60648660068151811061047a577f4e487b7100000000000000000000000000000000000000000000000000000000600052603260045260246000fd5b602002602001015161048c91906121e2565b6064876005815181106104c8577f4e487b7100000000000000000000000000000000000000000000000000000000600052603260045260246000fd5b60200260200101516104da91906121e2565b606488600481518110610516577f4e487b7100000000000000000000000000000000000000000000000000000000600052603260045260246000fd5b602002602001015161052891906121e2565b606489600381518110610564577f4e487b7100000000000000000000000000000000000000000000000000000000600052603260045260246000fd5b602002602001015161057691906121e2565b60648a6002815181106105b2577f4e487b7100000000000000000000000000000000000000000000000000000000600052603260045260246000fd5b60200260200101516105c491906121e2565b60c88b600181518110610600577f4e487b7100000000000000000000000000000000000000000000000000000000600052603260045260246000fd5b602002602001015161061291906121e2565b600a8c60008151811061064e577f4e487b7100000000000000000000000000000000000000000000000000000000600052603260045260246000fd5b602002602001015161066091906121e2565b61066a9190612154565b6106749190612154565b61067e9190612154565b6106889190612154565b6106929190612154565b61069c9190612154565b6106a69190612154565b6106b09190612154565b61ffff16905082156106cd576101f4816106ca919061218c565b90505b8091505092915050565b606061072d866000808973ffffffffffffffffffffffffffffffffffffffff1673ffffffffffffffffffffffffffffffffffffffff16815260200190815260200160002054610724610d5a565b88888888610d67565b61076c576040517f08c379a000000000000000000000000000000000000000000000000000000000815260040161076390611fe7565b60405180910390fd5b6107be60016000808973ffffffffffffffffffffffffffffffffffffffff1673ffffffffffffffffffffffffffffffffffffffff168152602001908152602001600020546111d090919063ffffffff16565b6000808873ffffffffffffffffffffffffffffffffffffffff1673ffffffffffffffffffffffffffffffffffffffff168152602001908152602001600020819055506000803073ffffffffffffffffffffffffffffffffffffffff16878960405160200161082d929190611d34565b6040516020818303038152906040526040516108499190611d1d565b6000604051808303816000865af19150503d8060008114610886576040519150601f19603f3d011682016040523d82523d6000602084013e61088b565b606091505b5091509150816108d0576040517f08c379a00000000000000000000000000000000000000000000000000000000081526004016108c790611f87565b60405180910390fd5b7f5845892132946850460bff5a0083f71031bc5bf9aadcd40f1de79423eac9b10b88338960405161090393929190611e10565b60405180910390a1809250505095945050505050565b6000819050600260008273ffffffffffffffffffffffffffffffffffffffff1673ffffffffffffffffffffffffffffffffffffffff16815260200190815260200160002060009054906101000a900460ff16156109ab576040517f08c379a00000000000000000000000000000000000000000000000000000000081526004016109a290611f67565b60405180910390fd5b6001600260008373ffffffffffffffffffffffffffffffffffffffff1673ffffffffffffffffffffffffffffffffffffffff16815260200190815260200160002060006101000a81548160ff021916908315150217905550600084608001519050600460009054906101000a900473ffffffffffffffffffffffffffffffffffffffff1673ffffffffffffffffffffffffffffffffffffffff16634e6ec24783670de0b6b3a764000084610a5f919061221e565b6040518363ffffffff1660e01b8152600401610a7c929190611ea1565b600060405180830381600087803b158015610a9657600080fd5b505af1158015610aaa573d6000803e3d6000fd5b50505050600360009054906101000a900473ffffffffffffffffffffffffffffffffffffffff1673ffffffffffffffffffffffffffffffffffffffff1663a140f564838784886040518563ffffffff1660e01b8152600401610b0f9493929190611e4e565b600060405180830381600087803b158015610b2957600080fd5b505af1158015610b3d573d6000803e3d6000fd5b505050505050505050565b60008060008373ffffffffffffffffffffffffffffffffffffffff1673ffffffffffffffffffffffffffffffffffffffff168152602001908152602001600020549050919050565b600060018054906101000a900460ff16159050808015610bc1575060018060009054906101000a900460ff1660ff16105b80610bef5750610bd0306111e6565b158015610bee575060018060009054906101000a900460ff1660ff16145b5b610c2e576040517f08c379a0000000000000000000000000000000000000000000000000000000008152600401610c2590611fc7565b60405180910390fd5b60018060006101000a81548160ff021916908360ff1602179055508015610c6a5760018060016101000a81548160ff0219169083151502179055505b610c7a610c75611209565b6112bf565b82600360006101000a81548173ffffffffffffffffffffffffffffffffffffffff021916908373ffffffffffffffffffffffffffffffffffffffff16021790555081600460006101000a81548173ffffffffffffffffffffffffffffffffffffffff021916908373ffffffffffffffffffffffffffffffffffffffff1602179055508015610d555760006001806101000a81548160ff0219169083151502179055507f7f26b83ff96e1f2b6a682f133852f6798a09c465da95921460cefb38474024986001604051610d4c9190611f4c565b60405180910390a15b505050565b6000804690508091505090565b600080610d9f88308989604051602001610d849493929190611d82565b60405160208183030381529060405280519060200120611303565b9050600060018285888860405160008152602001604052604051610dc69493929190611ee5565b6020604051602081039080840390855afa158015610de8573d6000803e3d6000fd5b505050602060405103519050600073ffffffffffffffffffffffffffffffffffffffff168173ffffffffffffffffffffffffffffffffffffffff161415610e64576040517f08c379a0000000000000000000000000000000000000000000000000000000008152600401610e5b90611fa7565b60405180910390fd5b8073ffffffffffffffffffffffffffffffffffffffff168a73ffffffffffffffffffffffffffffffffffffffff161492505050979650505050505050565b6000600160029054906101000a900473ffffffffffffffffffffffffffffffffffffffff16905090565b610ed4610ea2565b73ffffffffffffffffffffffffffffffffffffffff16610ef2611209565b73ffffffffffffffffffffffffffffffffffffffff1614610f48576040517f08c379a0000000000000000000000000000000000000000000000000000000008152600401610f3f90612007565b60405180910390fd5b80600460006101000a81548173ffffffffffffffffffffffffffffffffffffffff021916908373ffffffffffffffffffffffffffffffffffffffff16021790555050565b610f94610ea2565b73ffffffffffffffffffffffffffffffffffffffff16610fb2611209565b73ffffffffffffffffffffffffffffffffffffffff1614611008576040517f08c379a0000000000000000000000000000000000000000000000000000000008152600401610fff90612007565b60405180910390fd5b80600360006101000a81548173ffffffffffffffffffffffffffffffffffffffff021916908373ffffffffffffffffffffffffffffffffffffffff16021790555050565b600360009054906101000a900473ffffffffffffffffffffffffffffffffffffffff1681565b600460009054906101000a900473ffffffffffffffffffffffffffffffffffffffff1681565b6110a0610ea2565b73ffffffffffffffffffffffffffffffffffffffff166110be611209565b73ffffffffffffffffffffffffffffffffffffffff1614611114576040517f08c379a000000000000000000000000000000000000000000000000000000000815260040161110b90612007565b60405180910390fd5b600073ffffffffffffffffffffffffffffffffffffffff168173ffffffffffffffffffffffffffffffffffffffff161415611184576040517f08c379a000000000000000000000000000000000000000000000000000000000815260040161117b90612007565b60405180910390fd5b7f8be0079c531659141344cd1fd0a4f28419497f9722a3daafe3b4186f6b6457e06111ad610ea2565b826040516111bc929190611de7565b60405180910390a16111cd816112bf565b50565b600081836111de919061218c565b905092915050565b6000808273ffffffffffffffffffffffffffffffffffffffff163b119050919050565b60003073ffffffffffffffffffffffffffffffffffffffff163373ffffffffffffffffffffffffffffffffffffffff1614156112b357600080368080601f016020809104026020016040519081016040528093929190818152602001838380828437600081840152601f19601f820116905080830192505050505050509050600080369050905073ffffffffffffffffffffffffffffffffffffffff8183015116925050506112bb565b3390506112bc565b5b90565b80600160026101000a81548173ffffffffffffffffffffffffffffffffffffffff021916908373ffffffffffffffffffffffffffffffffffffffff16021790555050565b6000816040516020016113169190611d5c565b604051602081830303815290604052805190602001209050919050565b600061134661134184612067565b612042565b9050808382526020820190508285602086028201111561136557600080fd5b60005b85811015611395578161137b8882611686565b845260208401935060208301925050600181019050611368565b5050509392505050565b60006113b26113ad84612093565b612042565b9050828152602081018484840111156113ca57600080fd5b6113d584828561232d565b509392505050565b60006113f06113eb846120c4565b612042565b90508281526020810184848401111561140857600080fd5b61141384828561232d565b509392505050565b60008135905061142a816125e5565b92915050565b600082601f83011261144157600080fd5b8135611451848260208601611333565b91505092915050565b600081359050611469816125fc565b92915050565b60008135905061147e81612613565b92915050565b600082601f83011261149557600080fd5b81356114a584826020860161139f565b91505092915050565b600082601f8301126114bf57600080fd5b81356114cf8482602086016113dd565b91505092915050565b600061018082840312156114eb57600080fd5b6114f6610180612042565b9050600082013567ffffffffffffffff81111561151257600080fd5b61151e848285016114ae565b600083015250602082013567ffffffffffffffff81111561153e57600080fd5b61154a848285016114ae565b602083015250604082013567ffffffffffffffff81111561156a57600080fd5b611576848285016114ae565b604083015250606082013567ffffffffffffffff81111561159657600080fd5b6115a2848285016114ae565b60608301525060806115b68482850161169b565b60808301525060a082013567ffffffffffffffff8111156115d657600080fd5b6115e2848285016114ae565b60a08301525060c082013567ffffffffffffffff81111561160257600080fd5b61160e848285016114ae565b60c08301525060e061162284828501611686565b60e08301525061010061163784828501611686565b6101008301525061012061164d84828501611686565b6101208301525061014061166384828501611686565b6101408301525061016061167984828501611686565b6101608301525092915050565b6000813590506116958161262a565b92915050565b6000813590506116aa81612641565b92915050565b6000813590506116bf81612658565b92915050565b6000602082840312156116d757600080fd5b60006116e58482850161141b565b91505092915050565b6000806040838503121561170157600080fd5b600061170f8582860161141b565b92505060206117208582860161141b565b9150509250929050565b600080600080600060a0868803121561174257600080fd5b60006117508882890161141b565b955050602086013567ffffffffffffffff81111561176d57600080fd5b61177988828901611484565b945050604061178a8882890161146f565b935050606061179b8882890161146f565b92505060806117ac888289016116b0565b9150509295509295909350565b600080600080600080600060e0888a0312156117d457600080fd5b60006117e28a828b0161141b565b97505060206117f38a828b0161169b565b96505060406118048a828b0161169b565b955050606088013567ffffffffffffffff81111561182157600080fd5b61182d8a828b01611484565b945050608061183e8a828b0161146f565b93505060a061184f8a828b0161146f565b92505060c06118608a828b016116b0565b91505092959891949750929550565b6000806040838503121561188257600080fd5b600083013567ffffffffffffffff81111561189c57600080fd5b6118a885828601611430565b92505060206118b98582860161145a565b9150509250929050565b6000806000606084860312156118d857600080fd5b600084013567ffffffffffffffff8111156118f257600080fd5b6118fe868287016114d8565b935050602084013567ffffffffffffffff81111561191b57600080fd5b611927868287016114ae565b92505060406119388682870161141b565b9150509250925092565b61194b8161228a565b82525050565b61195a81612278565b82525050565b61197161196c82612278565b6123a0565b82525050565b6119808161229c565b82525050565b61198f816122a8565b82525050565b6119a66119a1826122a8565b6123b2565b82525050565b60006119b7826120f5565b6119c1818561210b565b93506119d181856020860161233c565b6119da81612436565b840191505092915050565b60006119f0826120f5565b6119fa818561211c565b9350611a0a81856020860161233c565b80840191505092915050565b611a27611a22826122f7565b6123a0565b82525050565b611a368161231b565b82525050565b6000611a4782612100565b611a518185612127565b9350611a6181856020860161233c565b611a6a81612436565b840191505092915050565b6000611a8082612100565b611a8a8185612138565b9350611a9a81856020860161233c565b611aa381612436565b840191505092915050565b6000611abb602583612138565b9150611ac682612454565b604082019050919050565b6000611ade601c83612149565b9150611ae9826124a3565b601c82019050919050565b6000611b01601c83612138565b9150611b0c826124cc565b602082019050919050565b6000611b24601183612138565b9150611b2f826124f5565b602082019050919050565b6000611b47602e83612138565b9150611b528261251e565b604082019050919050565b6000611b6a602183612138565b9150611b758261256d565b604082019050919050565b6000611b8d601883612138565b9150611b98826125bc565b602082019050919050565b6000610180830160008301518482036000860152611bc18282611a3c565b91505060208301518482036020860152611bdb8282611a3c565b91505060408301518482036040860152611bf58282611a3c565b91505060608301518482036060860152611c0f8282611a3c565b9150506080830151611c246080860182611cd9565b5060a083015184820360a0860152611c3c8282611a3c565b91505060c083015184820360c0860152611c568282611a3c565b91505060e0830151611c6b60e0860182611cca565b50610100830151611c80610100860182611cca565b50610120830151611c95610120860182611cca565b50610140830151611caa610140860182611cca565b50610160830151611cbf610160860182611cca565b508091505092915050565b611cd3816122b2565b82525050565b611ce2816122e0565b82525050565b611cf1816122e0565b82525050565b611d08611d03826122e0565b6123ce565b82525050565b611d17816122ea565b82525050565b6000611d2982846119e5565b915081905092915050565b6000611d4082856119e5565b9150611d4c8284611960565b6014820191508190509392505050565b6000611d6782611ad1565b9150611d738284611995565b60208201915081905092915050565b6000611d8e8287611cf7565b602082019150611d9e8286611a16565b601482019150611dae8285611cf7565b602082019150611dbe82846119e5565b915081905095945050505050565b6000602082019050611de16000830184611951565b92915050565b6000604082019050611dfc6000830185611951565b611e096020830184611951565b9392505050565b6000606082019050611e256000830186611951565b611e326020830185611942565b8181036040830152611e4481846119ac565b9050949350505050565b6000608082019050611e636000830187611951565b8181036020830152611e758186611ba3565b9050611e846040830185611ce8565b8181036060830152611e968184611a75565b905095945050505050565b6000604082019050611eb66000830185611951565b611ec36020830184611ce8565b9392505050565b6000602082019050611edf6000830184611977565b92915050565b6000608082019050611efa6000830187611986565b611f076020830186611d0e565b611f146040830185611986565b611f216060830184611986565b95945050505050565b60006020820190508181036000830152611f4481846119ac565b905092915050565b6000602082019050611f616000830184611a2d565b92915050565b60006020820190508181036000830152611f8081611aae565b9050919050565b60006020820190508181036000830152611fa081611af4565b9050919050565b60006020820190508181036000830152611fc081611b17565b9050919050565b60006020820190508181036000830152611fe081611b3a565b9050919050565b6000602082019050818103600083015261200081611b5d565b9050919050565b6000602082019050818103600083015261202081611b80565b9050919050565b600060208201905061203c6000830184611ce8565b92915050565b600061204c61205d565b9050612058828261236f565b919050565b6000604051905090565b600067ffffffffffffffff82111561208257612081612407565b5b602082029050602081019050919050565b600067ffffffffffffffff8211156120ae576120ad612407565b5b6120b782612436565b9050602081019050919050565b600067ffffffffffffffff8211156120df576120de612407565b5b6120e882612436565b9050602081019050919050565b600081519050919050565b600081519050919050565b600082825260208201905092915050565b600081905092915050565b600082825260208201905092915050565b600082825260208201905092915050565b600081905092915050565b600061215f826122b2565b915061216a836122b2565b92508261ffff03821115612181576121806123d8565b5b828201905092915050565b6000612197826122e0565b91506121a2836122e0565b9250827fffffffffffffffffffffffffffffffffffffffffffffffffffffffffffffffff038211156121d7576121d66123d8565b5b828201905092915050565b60006121ed826122b2565b91506121f8836122b2565b92508161ffff0483118215151615612213576122126123d8565b5b828202905092915050565b6000612229826122e0565b9150612234836122e0565b9250817fffffffffffffffffffffffffffffffffffffffffffffffffffffffffffffffff048311821515161561226d5761226c6123d8565b5b828202905092915050565b6000612283826122c0565b9050919050565b6000612295826122c0565b9050919050565b60008115159050919050565b6000819050919050565b600061ffff82169050919050565b600073ffffffffffffffffffffffffffffffffffffffff82169050919050565b6000819050919050565b600060ff82169050919050565b600061230282612309565b9050919050565b6000612314826122c0565b9050919050565b6000612326826122ea565b9050919050565b82818337600083830152505050565b60005b8381101561235a57808201518184015260208101905061233f565b83811115612369576000848401525b50505050565b61237882612436565b810181811067ffffffffffffffff8211171561239757612396612407565b5b80604052505050565b60006123ab826123bc565b9050919050565b6000819050919050565b60006123c782612447565b9050919050565b6000819050919050565b7f4e487b7100000000000000000000000000000000000000000000000000000000600052601160045260246000fd5b7f4e487b7100000000000000000000000000000000000000000000000000000000600052604160045260246000fd5b6000601f19601f8301169050919050565b60008160601b9050919050565b7f5573657220686173205761676d6943757020504f415020616c7265616479206d60008201527f696e746564000000000000000000000000000000000000000000000000000000602082015250565b7f19457468657265756d205369676e6564204d6573736167653a0a333200000000600082015250565b7f46756e6374696f6e2063616c6c206e6f74207375636365737366756c00000000600082015250565b7f496e76616c6964207369676e6174757265000000000000000000000000000000600082015250565b7f496e697469616c697a61626c653a20636f6e747261637420697320616c72656160008201527f647920696e697469616c697a6564000000000000000000000000000000000000602082015250565b7f5369676e657220616e64207369676e617475726520646f206e6f74206d61746360008201527f6800000000000000000000000000000000000000000000000000000000000000602082015250565b7f437573746f6d4f776e61626c653a20464f5242494444454e0000000000000000600082015250565b6125ee81612278565b81146125f957600080fd5b50565b6126058161229c565b811461261057600080fd5b50565b61261c816122a8565b811461262757600080fd5b50565b612633816122b2565b811461263e57600080fd5b50565b61264a816122e0565b811461265557600080fd5b50565b612661816122ea565b811461266c57600080fd5b5056fea26469706673582212209fd775505b03db35f0344daeb76c9342c3c74dc6ab711fdc12d850d683a2002864736f6c63430008020033",
  "devdoc": {
    "kind": "dev",
    "methods": {
      "executeMetaTransaction(address,bytes,bytes32,bytes32,uint8)": {
        "params": {
          "functionSignature": "Signature of the actual function to be called via meta transaction",
          "sigR": "R part of the signature",
          "sigS": "S part of the signature",
          "sigV": "V part of the signature",
          "userAddress": "Address of user trying to do meta transaction"
        }
      },
      "owner()": {
        "details": "Tells the address of the owner",
        "returns": {
          "_0": "the address of the owner"
        }
      },
      "transferOwnership(address)": {
        "details": "Allows the current owner to transfer control of the contract to a newOwner.",
        "params": {
          "newOwner": "The address to transfer ownership to."
        }
      }
    },
    "version": 1
  },
  "userdoc": {
    "kind": "user",
    "methods": {
      "executeMetaTransaction(address,bytes,bytes32,bytes32,uint8)": {
        "notice": "Main function to be called when user wants to execute meta transaction. The actual function to be called should be passed as param with name functionSignature Here the basic signature recovery is being used. Signature is expected to be generated using personal_sign method."
      }
    },
    "version": 1
  },
  "storageLayout": {
    "storage": [
      {
        "astId": 2212,
        "contract": "contracts/Registration.sol:Registration",
        "label": "nonces",
        "offset": 0,
        "slot": "0",
        "type": "t_mapping(t_address,t_uint256)"
      },
      {
        "astId": 6,
        "contract": "contracts/Registration.sol:Registration",
        "label": "_initialized",
        "offset": 0,
        "slot": "1",
        "type": "t_uint8"
      },
      {
        "astId": 9,
        "contract": "contracts/Registration.sol:Registration",
        "label": "_initializing",
        "offset": 1,
        "slot": "1",
        "type": "t_bool"
      },
      {
        "astId": 3283,
        "contract": "contracts/Registration.sol:Registration",
        "label": "_owner",
        "offset": 2,
        "slot": "1",
        "type": "t_address"
      },
      {
        "astId": 2741,
        "contract": "contracts/Registration.sol:Registration",
        "label": "isPoaped",
        "offset": 0,
        "slot": "2",
        "type": "t_mapping(t_address,t_bool)"
      },
      {
        "astId": 2743,
        "contract": "contracts/Registration.sol:Registration",
        "label": "wagmiCup_SBT",
        "offset": 0,
        "slot": "3",
        "type": "t_address"
      },
      {
        "astId": 2745,
        "contract": "contracts/Registration.sol:Registration",
        "label": "repContract",
        "offset": 0,
        "slot": "4",
        "type": "t_address"
      }
    ],
    "types": {
      "t_address": {
        "encoding": "inplace",
        "label": "address",
        "numberOfBytes": "20"
      },
      "t_bool": {
        "encoding": "inplace",
        "label": "bool",
        "numberOfBytes": "1"
      },
      "t_mapping(t_address,t_bool)": {
        "encoding": "mapping",
        "key": "t_address",
        "label": "mapping(address => bool)",
        "numberOfBytes": "32",
        "value": "t_bool"
      },
      "t_mapping(t_address,t_uint256)": {
        "encoding": "mapping",
        "key": "t_address",
        "label": "mapping(address => uint256)",
        "numberOfBytes": "32",
        "value": "t_uint256"
      },
      "t_uint256": {
        "encoding": "inplace",
        "label": "uint256",
        "numberOfBytes": "32"
      },
      "t_uint8": {
        "encoding": "inplace",
        "label": "uint8",
        "numberOfBytes": "1"
      }
    }
  }
}